{
  "contractName": "Rideshare",
  "abi": [
    {
      "constant": false,
      "inputs": [
        {
          "name": "spender",
          "type": "address"
        },
        {
          "name": "value",
          "type": "uint256"
        }
      ],
      "name": "approve",
      "outputs": [
        {
          "name": "",
          "type": "bool"
        }
      ],
      "payable": false,
      "stateMutability": "nonpayable",
      "type": "function"
    },
    {
      "constant": true,
      "inputs": [],
      "name": "totalSupply",
      "outputs": [
        {
          "name": "",
          "type": "uint256"
        }
      ],
      "payable": false,
      "stateMutability": "view",
      "type": "function"
    },
    {
      "constant": false,
      "inputs": [
        {
          "name": "from",
          "type": "address"
        },
        {
          "name": "to",
          "type": "address"
        },
        {
          "name": "value",
          "type": "uint256"
        }
      ],
      "name": "transferFrom",
      "outputs": [
        {
          "name": "",
          "type": "bool"
        }
      ],
      "payable": false,
      "stateMutability": "nonpayable",
      "type": "function"
    },
    {
      "constant": false,
      "inputs": [
        {
          "name": "spender",
          "type": "address"
        },
        {
          "name": "addedValue",
          "type": "uint256"
        }
      ],
      "name": "increaseAllowance",
      "outputs": [
        {
          "name": "",
          "type": "bool"
        }
      ],
      "payable": false,
      "stateMutability": "nonpayable",
      "type": "function"
    },
    {
      "constant": true,
      "inputs": [
        {
          "name": "",
          "type": "uint256"
        }
      ],
      "name": "rides",
      "outputs": [
        {
          "name": "driver",
          "type": "address"
        },
        {
          "name": "state",
          "type": "uint256"
        },
        {
          "name": "createdAt",
          "type": "uint256"
        },
        {
          "name": "confirmedAt",
          "type": "uint256"
        },
        {
          "name": "deadlineAt",
          "type": "uint256"
        },
        {
          "name": "departAt",
          "type": "uint256"
        },
        {
          "name": "capacity",
          "type": "uint256"
        },
        {
          "name": "long1",
          "type": "uint256"
        },
        {
          "name": "lat1",
          "type": "uint256"
        },
        {
          "name": "long2",
          "type": "uint256"
        },
        {
          "name": "lat2",
          "type": "uint256"
        },
        {
          "name": "minFee",
          "type": "uint256"
        }
      ],
      "payable": false,
      "stateMutability": "view",
      "type": "function"
    },
    {
      "constant": true,
      "inputs": [
        {
          "name": "owner",
          "type": "address"
        }
      ],
      "name": "balanceOf",
      "outputs": [
        {
          "name": "",
          "type": "uint256"
        }
      ],
      "payable": false,
      "stateMutability": "view",
      "type": "function"
    },
    {
      "constant": false,
      "inputs": [],
      "name": "renounceOwnership",
      "outputs": [],
      "payable": false,
      "stateMutability": "nonpayable",
      "type": "function"
    },
    {
      "constant": true,
      "inputs": [],
      "name": "owner",
      "outputs": [
        {
          "name": "",
          "type": "address"
        }
      ],
      "payable": false,
      "stateMutability": "view",
      "type": "function"
    },
    {
      "constant": true,
      "inputs": [],
      "name": "isOwner",
      "outputs": [
        {
          "name": "",
          "type": "bool"
        }
      ],
      "payable": false,
      "stateMutability": "view",
      "type": "function"
    },
    {
      "constant": false,
      "inputs": [
        {
          "name": "spender",
          "type": "address"
        },
        {
          "name": "subtractedValue",
          "type": "uint256"
        }
      ],
      "name": "decreaseAllowance",
      "outputs": [
        {
          "name": "",
          "type": "bool"
        }
      ],
      "payable": false,
      "stateMutability": "nonpayable",
      "type": "function"
    },
    {
      "constant": false,
      "inputs": [
        {
          "name": "to",
          "type": "address"
        },
        {
          "name": "value",
          "type": "uint256"
        }
      ],
      "name": "transfer",
      "outputs": [
        {
          "name": "",
          "type": "bool"
        }
      ],
      "payable": false,
      "stateMutability": "nonpayable",
      "type": "function"
    },
    {
      "constant": true,
      "inputs": [
        {
          "name": "owner",
          "type": "address"
        },
        {
          "name": "spender",
          "type": "address"
        }
      ],
      "name": "allowance",
      "outputs": [
        {
          "name": "",
          "type": "uint256"
        }
      ],
      "payable": false,
      "stateMutability": "view",
      "type": "function"
    },
    {
      "constant": false,
      "inputs": [
        {
          "name": "newOwner",
          "type": "address"
        }
      ],
      "name": "transferOwnership",
      "outputs": [],
      "payable": false,
      "stateMutability": "nonpayable",
      "type": "function"
    },
    {
      "constant": true,
      "inputs": [],
      "name": "arbiter",
      "outputs": [
        {
          "name": "",
          "type": "address"
        }
      ],
      "payable": false,
      "stateMutability": "view",
      "type": "function"
    },
    {
      "anonymous": false,
      "inputs": [
        {
          "indexed": true,
          "name": "previousOwner",
          "type": "address"
        },
        {
          "indexed": true,
          "name": "newOwner",
          "type": "address"
        }
      ],
      "name": "OwnershipTransferred",
      "type": "event"
    },
    {
      "anonymous": false,
      "inputs": [
        {
          "indexed": true,
          "name": "from",
          "type": "address"
        },
        {
          "indexed": true,
          "name": "to",
          "type": "address"
        },
        {
          "indexed": false,
          "name": "value",
          "type": "uint256"
        }
      ],
      "name": "Transfer",
      "type": "event"
    },
    {
      "anonymous": false,
      "inputs": [
        {
          "indexed": true,
          "name": "owner",
          "type": "address"
        },
        {
          "indexed": true,
          "name": "spender",
          "type": "address"
        },
        {
          "indexed": false,
          "name": "value",
          "type": "uint256"
        }
      ],
      "name": "Approval",
      "type": "event"
    },
    {
      "constant": false,
      "inputs": [
        {
          "name": "_confirmedAt",
          "type": "uint256"
        },
        {
          "name": "_deadlineAt",
          "type": "uint256"
        },
        {
          "name": "_departAt",
          "type": "uint256"
        },
        {
          "name": "_capacity",
          "type": "uint256"
        },
        {
          "name": "_long1",
          "type": "uint256"
        },
        {
          "name": "_lat1",
          "type": "uint256"
        },
        {
          "name": "_long2",
          "type": "uint256"
        },
        {
          "name": "_lat2",
          "type": "uint256"
        },
        {
          "name": "_minFee",
          "type": "uint256"
        }
      ],
      "name": "createRide",
      "outputs": [],
      "payable": false,
      "stateMutability": "nonpayable",
      "type": "function"
    },
    {
      "constant": false,
      "inputs": [
        {
          "name": "_long1",
          "type": "uint256"
        },
        {
          "name": "_lat1",
          "type": "uint256"
        },
        {
          "name": "_long2",
          "type": "uint256"
        },
        {
          "name": "_lat2",
          "type": "uint256"
        },
        {
          "name": "_rideNumber",
          "type": "uint256"
        }
      ],
      "name": "joinRide",
      "outputs": [],
      "payable": false,
      "stateMutability": "nonpayable",
      "type": "function"
    },
    {
      "constant": false,
      "inputs": [
        {
          "name": "_rideNumber",
          "type": "uint256"
        }
      ],
      "name": "verifyTripStartPassenger",
      "outputs": [],
      "payable": false,
      "stateMutability": "nonpayable",
      "type": "function"
    },
    {
      "constant": true,
      "inputs": [
        {
          "name": "_rideNumber",
          "type": "uint256"
        }
      ],
      "name": "verifyTripStartDriver",
      "outputs": [],
      "payable": false,
      "stateMutability": "view",
      "type": "function"
    },
    {
      "constant": false,
      "inputs": [
        {
          "name": "_rideNumber",
          "type": "uint256"
        }
      ],
      "name": "depositFeeToContract",
      "outputs": [],
      "payable": true,
      "stateMutability": "payable",
      "type": "function"
    },
    {
      "constant": true,
      "inputs": [
        {
          "name": "_rideNumber",
          "type": "uint256"
        }
      ],
      "name": "verifyTripEndPassenger",
      "outputs": [],
      "payable": false,
      "stateMutability": "view",
      "type": "function"
    },
    {
      "constant": false,
      "inputs": [
        {
          "name": "_rideNumber",
          "type": "uint256"
        }
      ],
      "name": "verifyTripEndDriver",
      "outputs": [],
      "payable": false,
      "stateMutability": "nonpayable",
      "type": "function"
    },
    {
      "constant": true,
      "inputs": [],
      "name": "getBalance",
      "outputs": [
        {
          "name": "",
          "type": "uint256"
        }
      ],
      "payable": false,
      "stateMutability": "view",
      "type": "function"
    }
  ],
  "bytecode": "0x608060405233600360006101000a81548173ffffffffffffffffffffffffffffffffffffffff021916908373ffffffffffffffffffffffffffffffffffffffff160217905550600360009054906101000a900473ffffffffffffffffffffffffffffffffffffffff1673ffffffffffffffffffffffffffffffffffffffff16600073ffffffffffffffffffffffffffffffffffffffff167f8be0079c531659141344cd1fd0a4f28419497f9722a3daafe3b4186f6b6457e060405160405180910390a361217f806100d16000396000f300608060405260043610610128576000357c0100000000000000000000000000000000000000000000000000000000900463ffffffff168063095ea7b31461012d57806312065fe01461019257806318160ddd146101bd57806323b872dd146101e8578063395093511461026d5780634e505a39146102d25780635205f112146102ff57806370a08231146103b9578063715018a6146104105780637df099e2146104275780638da5cb5b146104545780638f32d59b146104ab578063948bf99b146104da578063a457c2d7146104fa578063a9059cbb1461055f578063c3801d61146105c4578063dd62ed3e14610619578063e01553d514610690578063ef59099b146106bd578063f2fde38b1461073a578063f4aaa64f1461077d578063fe25e00a146107aa575b600080fd5b34801561013957600080fd5b50610178600480360381019080803573ffffffffffffffffffffffffffffffffffffffff16906020019092919080359060200190929190505050610801565b604051808215151515815260200191505060405180910390f35b34801561019e57600080fd5b506101a761092e565b6040518082815260200191505060405180910390f35b3480156101c957600080fd5b506101d261094d565b6040518082815260200191505060405180910390f35b3480156101f457600080fd5b50610253600480360381019080803573ffffffffffffffffffffffffffffffffffffffff169060200190929190803573ffffffffffffffffffffffffffffffffffffffff16906020019092919080359060200190929190505050610957565b604051808215151515815260200191505060405180910390f35b34801561027957600080fd5b506102b8600480360381019080803573ffffffffffffffffffffffffffffffffffffffff16906020019092919080359060200190929190505050610a7e565b604051808215151515815260200191505060405180910390f35b3480156102de57600080fd5b506102fd60048036038101908080359060200190929190505050610cb5565b005b34801561030b57600080fd5b5061032a60048036038101908080359060200190929190505050610e91565b604051808d73ffffffffffffffffffffffffffffffffffffffff1673ffffffffffffffffffffffffffffffffffffffff1681526020018c81526020018b81526020018a81526020018981526020018881526020018781526020018681526020018581526020018481526020018381526020018281526020019c5050505050505050505050505060405180910390f35b3480156103c557600080fd5b506103fa600480360381019080803573ffffffffffffffffffffffffffffffffffffffff169060200190929190505050610f20565b6040518082815260200191505060405180910390f35b34801561041c57600080fd5b50610425610f68565b005b34801561043357600080fd5b506104526004803603810190808035906020019092919050505061103c565b005b34801561046057600080fd5b506104696111e5565b604051808273ffffffffffffffffffffffffffffffffffffffff1673ffffffffffffffffffffffffffffffffffffffff16815260200191505060405180910390f35b3480156104b757600080fd5b506104c061120f565b604051808215151515815260200191505060405180910390f35b6104f860048036038101908080359060200190929190505050611267565b005b34801561050657600080fd5b50610545600480360381019080803573ffffffffffffffffffffffffffffffffffffffff16906020019092919080359060200190929190505050611427565b604051808215151515815260200191505060405180910390f35b34801561056b57600080fd5b506105aa600480360381019080803573ffffffffffffffffffffffffffffffffffffffff1690602001909291908035906020019092919050505061165e565b604051808215151515815260200191505060405180910390f35b3480156105d057600080fd5b506106176004803603810190808035906020019092919080359060200190929190803590602001909291908035906020019092919080359060200190929190505050611675565b005b34801561062557600080fd5b5061067a600480360381019080803573ffffffffffffffffffffffffffffffffffffffff169060200190929190803573ffffffffffffffffffffffffffffffffffffffff169060200190929190505050611933565b6040518082815260200191505060405180910390f35b34801561069c57600080fd5b506106bb600480360381019080803590602001909291905050506119ba565b005b3480156106c957600080fd5b50610738600480360381019080803590602001909291908035906020019092919080359060200190929190803590602001909291908035906020019092919080359060200190929190803590602001909291908035906020019092919080359060200190929190505050611abe565b005b34801561074657600080fd5b5061077b600480360381019080803573ffffffffffffffffffffffffffffffffffffffff169060200190929190505050611c4b565b005b34801561078957600080fd5b506107a860048036038101908080359060200190929190505050611c6a565b005b3480156107b657600080fd5b506107bf611cce565b604051808273ffffffffffffffffffffffffffffffffffffffff1673ffffffffffffffffffffffffffffffffffffffff16815260200191505060405180910390f35b60008073ffffffffffffffffffffffffffffffffffffffff168373ffffffffffffffffffffffffffffffffffffffff161415151561083e57600080fd5b81600160003373ffffffffffffffffffffffffffffffffffffffff1673ffffffffffffffffffffffffffffffffffffffff16815260200190815260200160002060008573ffffffffffffffffffffffffffffffffffffffff1673ffffffffffffffffffffffffffffffffffffffff168152602001908152602001600020819055508273ffffffffffffffffffffffffffffffffffffffff163373ffffffffffffffffffffffffffffffffffffffff167f8c5be1e5ebec7d5bd14f71427d1e84f3dd0314c0f7b2291e5b200ac8c7c3b925846040518082815260200191505060405180910390a36001905092915050565b60003073ffffffffffffffffffffffffffffffffffffffff1631905090565b6000600254905090565b60006109e882600160008773ffffffffffffffffffffffffffffffffffffffff1673ffffffffffffffffffffffffffffffffffffffff16815260200190815260200160002060003373ffffffffffffffffffffffffffffffffffffffff1673ffffffffffffffffffffffffffffffffffffffff16815260200190815260200160002054611cf490919063ffffffff16565b600160008673ffffffffffffffffffffffffffffffffffffffff1673ffffffffffffffffffffffffffffffffffffffff16815260200190815260200160002060003373ffffffffffffffffffffffffffffffffffffffff1673ffffffffffffffffffffffffffffffffffffffff16815260200190815260200160002081905550610a73848484611d15565b600190509392505050565b60008073ffffffffffffffffffffffffffffffffffffffff168373ffffffffffffffffffffffffffffffffffffffff1614151515610abb57600080fd5b610b4a82600160003373ffffffffffffffffffffffffffffffffffffffff1673ffffffffffffffffffffffffffffffffffffffff16815260200190815260200160002060008673ffffffffffffffffffffffffffffffffffffffff1673ffffffffffffffffffffffffffffffffffffffff16815260200190815260200160002054611ee190919063ffffffff16565b600160003373ffffffffffffffffffffffffffffffffffffffff1673ffffffffffffffffffffffffffffffffffffffff16815260200190815260200160002060008573ffffffffffffffffffffffffffffffffffffffff1673ffffffffffffffffffffffffffffffffffffffff168152602001908152602001600020819055508273ffffffffffffffffffffffffffffffffffffffff163373ffffffffffffffffffffffffffffffffffffffff167f8c5be1e5ebec7d5bd14f71427d1e84f3dd0314c0f7b2291e5b200ac8c7c3b925600160003373ffffffffffffffffffffffffffffffffffffffff1673ffffffffffffffffffffffffffffffffffffffff16815260200190815260200160002060008773ffffffffffffffffffffffffffffffffffffffff1673ffffffffffffffffffffffffffffffffffffffff168152602001908152602001600020546040518082815260200191505060405180910390a36001905092915050565b6000600960003373ffffffffffffffffffffffffffffffffffffffff1673ffffffffffffffffffffffffffffffffffffffff168152602001908152602001600020549050600582815481101515610d0857fe5b90600052602060002090600e0201600d0181815481101515610d2657fe5b9060005260206000200160009054906101000a900473ffffffffffffffffffffffffffffffffffffffff1673ffffffffffffffffffffffffffffffffffffffff163373ffffffffffffffffffffffffffffffffffffffff16141515610df3576040517f08c379a00000000000000000000000000000000000000000000000000000000081526004018080602001828103825260168152602001807f53656e646572206e6f7420617574686f72697a65642e0000000000000000000081525060200191505060405180910390fd5b6002600583815481101515610e0457fe5b90600052602060002090600e0201600c0160003373ffffffffffffffffffffffffffffffffffffffff1673ffffffffffffffffffffffffffffffffffffffff16815260200190815260200160002050505b6002600583815481101515610e6657fe5b90600052602060002090600e020160010154141515610e8d57610e8882611267565b610e55565b5050565b600581815481101515610ea057fe5b90600052602060002090600e02016000915090508060000160009054906101000a900473ffffffffffffffffffffffffffffffffffffffff169080600101549080600201549080600301549080600401549080600501549080600601549080600701549080600801549080600901549080600a01549080600b015490508c565b60008060008373ffffffffffffffffffffffffffffffffffffffff1673ffffffffffffffffffffffffffffffffffffffff168152602001908152602001600020549050919050565b610f7061120f565b1515610f7b57600080fd5b600073ffffffffffffffffffffffffffffffffffffffff16600360009054906101000a900473ffffffffffffffffffffffffffffffffffffffff1673ffffffffffffffffffffffffffffffffffffffff167f8be0079c531659141344cd1fd0a4f28419497f9722a3daafe3b4186f6b6457e060405160405180910390a36000600360006101000a81548173ffffffffffffffffffffffffffffffffffffffff021916908373ffffffffffffffffffffffffffffffffffffffff160217905550565b60058181548110151561104b57fe5b90600052602060002090600e020160000160009054906101000a900473ffffffffffffffffffffffffffffffffffffffff1673ffffffffffffffffffffffffffffffffffffffff163373ffffffffffffffffffffffffffffffffffffffff1614151561111f576040517f08c379a00000000000000000000000000000000000000000000000000000000081526004018080602001828103825260158152602001807f53656e646572206e6f7420617574686f72697a6564000000000000000000000081525060200191505060405180910390fd5b600460058281548110151561113057fe5b90600052602060002090600e0201600c0160003373ffffffffffffffffffffffffffffffffffffffff1673ffffffffffffffffffffffffffffffffffffffff16815260200190815260200160002050506111e160058281548110151561119257fe5b90600052602060002090600e020160000160009054906101000a900473ffffffffffffffffffffffffffffffffffffffff163073ffffffffffffffffffffffffffffffffffffffff163161165e565b5050565b6000600360009054906101000a900473ffffffffffffffffffffffffffffffffffffffff16905090565b6000600360009054906101000a900473ffffffffffffffffffffffffffffffffffffffff1673ffffffffffffffffffffffffffffffffffffffff163373ffffffffffffffffffffffffffffffffffffffff1614905090565b600260058281548110151561127857fe5b90600052602060002090600e0201600c0160003373ffffffffffffffffffffffffffffffffffffffff1673ffffffffffffffffffffffffffffffffffffffff168152602001908152602001600020600101541480156112f7575060026005828154811015156112e357fe5b90600052602060002090600e020160010154145b151561130257600080fd5b60058181548110151561131157fe5b90600052602060002090600e0201600b0154341015151561139a576040517f08c379a00000000000000000000000000000000000000000000000000000000081526004018080602001828103825260158152602001807f46756e6473206e6f742073756666696369656e742e000000000000000000000081525060200191505060405180910390fd5b6113a4303461165e565b5060036005828154811015156113b657fe5b9060005260206000209050505060036005828154811015156113d457fe5b90600052602060002090600e0201600c0160003373ffffffffffffffffffffffffffffffffffffffff1673ffffffffffffffffffffffffffffffffffffffff168152602001908152602001600020505050565b60008073ffffffffffffffffffffffffffffffffffffffff168373ffffffffffffffffffffffffffffffffffffffff161415151561146457600080fd5b6114f382600160003373ffffffffffffffffffffffffffffffffffffffff1673ffffffffffffffffffffffffffffffffffffffff16815260200190815260200160002060008673ffffffffffffffffffffffffffffffffffffffff1673ffffffffffffffffffffffffffffffffffffffff16815260200190815260200160002054611cf490919063ffffffff16565b600160003373ffffffffffffffffffffffffffffffffffffffff1673ffffffffffffffffffffffffffffffffffffffff16815260200190815260200160002060008573ffffffffffffffffffffffffffffffffffffffff1673ffffffffffffffffffffffffffffffffffffffff168152602001908152602001600020819055508273ffffffffffffffffffffffffffffffffffffffff163373ffffffffffffffffffffffffffffffffffffffff167f8c5be1e5ebec7d5bd14f71427d1e84f3dd0314c0f7b2291e5b200ac8c7c3b925600160003373ffffffffffffffffffffffffffffffffffffffff1673ffffffffffffffffffffffffffffffffffffffff16815260200190815260200160002060008773ffffffffffffffffffffffffffffffffffffffff1673ffffffffffffffffffffffffffffffffffffffff168152602001908152602001600020546040518082815260200191505060405180910390a36001905092915050565b600061166b338484611d15565b6001905092915050565b6000806000600660003373ffffffffffffffffffffffffffffffffffffffff1673ffffffffffffffffffffffffffffffffffffffff1681526020019081526020016000205414151561172f576040517f08c379a00000000000000000000000000000000000000000000000000000000081526004018080602001828103825260148152602001807f5269646520616c7265616479206a6f696e65642e00000000000000000000000081525060200191505060405180910390fd5b611737611f02565b60058381548110151561174657fe5b90600052602060002090600e02019150600160058481548110151561176757fe5b90600052602060002090600e0201600d013390806001815401808255809150509060018203906000526020600020016000909192909190916101000a81548173ffffffffffffffffffffffffffffffffffffffff021916908373ffffffffffffffffffffffffffffffffffffffff160217905550505081600c0160003373ffffffffffffffffffffffffffffffffffffffff1673ffffffffffffffffffffffffffffffffffffffff1681526020019081526020016000209050338160000160006101000a81548173ffffffffffffffffffffffffffffffffffffffff021916908373ffffffffffffffffffffffffffffffffffffffff16021790555042816002018190555086816003018190555085816004018190555084816005018190555083816006018190555081600d0180549050600960003373ffffffffffffffffffffffffffffffffffffffff1673ffffffffffffffffffffffffffffffffffffffff16815260200190815260200160002081905550600660003373ffffffffffffffffffffffffffffffffffffffff1673ffffffffffffffffffffffffffffffffffffffff1681526020019081526020016000206000815480929190600101919050555050505050505050565b6000600160008473ffffffffffffffffffffffffffffffffffffffff1673ffffffffffffffffffffffffffffffffffffffff16815260200190815260200160002060008373ffffffffffffffffffffffffffffffffffffffff1673ffffffffffffffffffffffffffffffffffffffff16815260200190815260200160002054905092915050565b6005818154811015156119c957fe5b90600052602060002090600e020160000160009054906101000a900473ffffffffffffffffffffffffffffffffffffffff1673ffffffffffffffffffffffffffffffffffffffff163373ffffffffffffffffffffffffffffffffffffffff16141515611a9d576040517f08c379a00000000000000000000000000000000000000000000000000000000081526004018080602001828103825260168152602001807f53656e646572206e6f7420617574686f72697a65642e0000000000000000000081525060200191505060405180910390fd5b6002600582815481101515611aae57fe5b9060005260206000209050505050565b6060611ac8611f02565b60056101a0604051908101604052803373ffffffffffffffffffffffffffffffffffffffff168152602001600181526020014281526020018c81526020018b81526020018a8152602001898152602001888152602001878152602001868152602001858152602001848152602001838152509080600181540180825580915050906001820390600052602060002090600e02016000909192909190915060008201518160000160006101000a81548173ffffffffffffffffffffffffffffffffffffffff021916908373ffffffffffffffffffffffffffffffffffffffff1602179055506020820151816001015560408201518160020155606082015181600301556080820151816004015560a0820151816005015560c0820151816006015560e082015181600701556101008201518160080155610120820151816009015561014082015181600a015561016082015181600b015561018082015181600d019080519060200190611c3b929190612086565b5050505050505050505050505050565b611c5361120f565b1515611c5e57600080fd5b611c6781611f8a565b50565b6004600582815481101515611c7b57fe5b90600052602060002090600e0201600c0160003373ffffffffffffffffffffffffffffffffffffffff1673ffffffffffffffffffffffffffffffffffffffff168152602001908152602001600020505050565b600460009054906101000a900473ffffffffffffffffffffffffffffffffffffffff1681565b600080838311151515611d0657600080fd5b82840390508091505092915050565b600073ffffffffffffffffffffffffffffffffffffffff168273ffffffffffffffffffffffffffffffffffffffff1614151515611d5157600080fd5b611da2816000808673ffffffffffffffffffffffffffffffffffffffff1673ffffffffffffffffffffffffffffffffffffffff16815260200190815260200160002054611cf490919063ffffffff16565b6000808573ffffffffffffffffffffffffffffffffffffffff1673ffffffffffffffffffffffffffffffffffffffff16815260200190815260200160002081905550611e35816000808573ffffffffffffffffffffffffffffffffffffffff1673ffffffffffffffffffffffffffffffffffffffff16815260200190815260200160002054611ee190919063ffffffff16565b6000808473ffffffffffffffffffffffffffffffffffffffff1673ffffffffffffffffffffffffffffffffffffffff168152602001908152602001600020819055508173ffffffffffffffffffffffffffffffffffffffff168373ffffffffffffffffffffffffffffffffffffffff167fddf252ad1be2c89b69c2b068fc378daa952ba7f163c4a11628f55a4df523b3ef836040518082815260200191505060405180910390a3505050565b6000808284019050838110151515611ef857600080fd5b8091505092915050565b6005600760003373ffffffffffffffffffffffffffffffffffffffff1673ffffffffffffffffffffffffffffffffffffffff1681526020019081526020016000205403600760003373ffffffffffffffffffffffffffffffffffffffff1673ffffffffffffffffffffffffffffffffffffffff16815260200190815260200160002081905550565b600073ffffffffffffffffffffffffffffffffffffffff168173ffffffffffffffffffffffffffffffffffffffff1614151515611fc657600080fd5b8073ffffffffffffffffffffffffffffffffffffffff16600360009054906101000a900473ffffffffffffffffffffffffffffffffffffffff1673ffffffffffffffffffffffffffffffffffffffff167f8be0079c531659141344cd1fd0a4f28419497f9722a3daafe3b4186f6b6457e060405160405180910390a380600360006101000a81548173ffffffffffffffffffffffffffffffffffffffff021916908373ffffffffffffffffffffffffffffffffffffffff16021790555050565b8280548282559060005260206000209081019282156120ff579160200282015b828111156120fe5782518260006101000a81548173ffffffffffffffffffffffffffffffffffffffff021916908373ffffffffffffffffffffffffffffffffffffffff160217905550916020019190600101906120a6565b5b50905061210c9190612110565b5090565b61215091905b8082111561214c57600081816101000a81549073ffffffffffffffffffffffffffffffffffffffff021916905550600101612116565b5090565b905600a165627a7a72305820c4519fc1dd249bc35e9995dacae04f49674447719f3b8ee25e0cc657d6dd9acb0029",
  "source": "pragma solidity ^0.4.24;\n\nimport \"./ERC20.sol\";\nimport \"./Ownable.sol\";\n\ncontract Rideshare is ERC20, Ownable{  \n\n    address public arbiter;\n\n    struct RideOffer{ \n        address driver;\n        uint state;\n        uint createdAt;\n        uint confirmedAt;\n        uint deadlineAt;\n        uint departAt;\n        uint capacity;\n        uint long1;\n        uint lat1;\n        uint long2;\n        uint lat2;\n        uint minFee;\n        mapping (address => RideSeeker) passengers; \n        address[] passengerAccts;\n    }\n\n    struct RideSeeker {\n        address passenger;\n        uint state;\n        uint confirmedAt;\n        uint long1;\n        uint lat1;\n        uint long2;\n        uint lat2;\n        uint maxFee;\n    } \n  \n    RideOffer[] public rides; \n    \n    mapping (address => uint) passengerRideCount;\n    mapping (address => uint) reputation; \n    mapping (address => uint) reputationCount;\n\n    mapping (address => uint) passengerID; \n\n  \n    function createRide(\n        uint _confirmedAt,\n        uint _deadlineAt,\n        uint _departAt,\n        uint _capacity,\n        uint _long1,\n        uint _lat1,\n        uint _long2,\n        uint _lat2,\n        uint _minFee) \n        public{\n        address[] memory _passengerAccts;\n        \n        payReputation();\n\n        rides.push(RideOffer(\n            msg.sender, \n            1,\n            block.timestamp, \n            _confirmedAt, \n            _deadlineAt, \n            _departAt, \n            _capacity, \n            _long1, \n            _lat1, \n            _long2, \n            _lat2, \n            _minFee,  \n            _passengerAccts));\n    }//\"Ride offer created\";\n \n    function joinRide(\n        uint _long1, \n        uint _lat1, \n        uint _long2, \n        uint _lat2, \n        uint _rideNumber)\n        public {         \n        require(passengerRideCount[msg.sender] == 0, \"Ride already joined.\");\n\n        payReputation();\n        \n        RideOffer storage selectRide = rides[_rideNumber];\n        rides[_rideNumber].passengerAccts.push(msg.sender)-1;\n        RideSeeker storage passenger = selectRide.passengers[msg.sender];\n        passenger.passenger = msg.sender;\n        passenger.confirmedAt = block.timestamp;\n        passenger.long1 = _long1;\n        passenger.lat1 = _lat1;\n        passenger.long2 = _long2;\n        passenger.lat2 = _lat2;\n\n        passengerID[msg.sender] = selectRide.passengerAccts.length;\n        passengerRideCount[msg.sender]++;\n\n    }//\"Passenger joined ride. Waiting for departure\";\n\n    function verifyTripStartPassenger(uint _rideNumber) public {\n        uint _passengerID = passengerID[msg.sender];\n        require(msg.sender == rides[_rideNumber].passengerAccts[_passengerID], \"Sender not authorized.\");\n        //require(that the passenger coordinates are nearby the agreed starting location)\n        rides[_rideNumber].passengers[msg.sender].state == 2;\n        while(rides[_rideNumber].state != 2){\n            depositFeeToContract(_rideNumber);\n        }\n    }//Passenger is ready to depart.;\n\n    function verifyTripStartDriver(uint _rideNumber) public view {\n        require(msg.sender == rides[_rideNumber].driver, \"Sender not authorized.\");\n        //require(that the driver coordinates are in the same area as the passenger coordinates)\n        rides[_rideNumber].state == 2;\n    }//\"Driver is ready to depart.;\n    \n    function depositFeeToContract(uint _rideNumber) public payable {\n        require(rides[_rideNumber].passengers[msg.sender].state == 2 && rides[_rideNumber].state == 2);\n        require(msg.value >= rides[_rideNumber].minFee, \"Funds not sufficient.\"); \n    \n        transfer(address(this), msg.value); \n        rides[_rideNumber].state == 3;\n        rides[_rideNumber].passengers[msg.sender].state == 3;\n    }\n\n    function verifyTripEndPassenger(uint _rideNumber) public view{\n        //require(that the driver coordinates are in the same area as the end location)\n        rides[_rideNumber].passengers[msg.sender].state == 4;\n    }//\"Trip ended. Passenger has no disputes. Waiting on driver inspection\";\n\n\n    function verifyTripEndDriver(uint _rideNumber) public {\n        require(msg.sender == rides[_rideNumber].driver, \"Sender not authorized\");\n        rides[_rideNumber].passengers[msg.sender].state == 4;\n        transfer(rides[_rideNumber].driver, address(this).balance);\n    }//\"Trip ended. No disputes. Funds successfully transferred\";\n\n    function payReputation() internal {\n        reputation[msg.sender] = reputation[msg.sender] - 5; \n    }\n\n    /* When there is arbitry\n    function payoutSeller(uint _rideNumber) public {\n        require (msg.sender == arbiter || msg.sender == rides[_rideNumber].passengers[msg.sender], \"Sender not authorized\");\n        transfer(rides[_rideNumber].driver, address(this).balance);\n        \n    }\n    function refundBuyer(uint _rideNumber) public {\n        require (msg.sender == arbiter, \"Sender not authorized\");\n        address  to = rides[_rideNumber].passengers[rides[_rideNumber].passengerAccts(passengerID)];\n        transfer(to, address(this).balance);\n        \n    }*/\n\n    function getBalance() external view returns (uint) {\n        return address(this).balance;\n    }\n\n\n\n}\n\n",
  "sourcePath": "/Users/victor/Rideshare/contracts/Rideshare.sol",
  "compiler": {
    "name": "solc",
    "version": "0.4.24+commit.e67f0147.Emscripten.clang"
  },
  "schemaVersion": "2.0.1",
  "updatedAt": "2018-12-11T03:48:59.788Z"
}